{
  "contractName": "NguyenToken",
  "abi": [
    {
      "constant": true,
      "inputs": [],
      "name": "name",
      "outputs": [
        {
          "name": "",
          "type": "string"
        }
      ],
      "payable": false,
      "stateMutability": "view",
      "type": "function"
    },
    {
      "constant": true,
      "inputs": [],
      "name": "totalSupply",
      "outputs": [
        {
          "name": "",
          "type": "uint256"
        }
      ],
      "payable": false,
      "stateMutability": "view",
      "type": "function"
    },
    {
      "constant": true,
      "inputs": [],
      "name": "decimals",
      "outputs": [
        {
          "name": "",
          "type": "uint256"
        }
      ],
      "payable": false,
      "stateMutability": "view",
      "type": "function"
    },
    {
      "constant": true,
      "inputs": [],
      "name": "symbol",
      "outputs": [
        {
          "name": "",
          "type": "string"
        }
      ],
      "payable": false,
      "stateMutability": "view",
      "type": "function"
    },
    {
      "inputs": [
        {
          "name": "_totalSupply",
          "type": "uint256"
        }
      ],
      "payable": false,
      "stateMutability": "nonpayable",
      "type": "constructor"
    },
    {
      "payable": true,
      "stateMutability": "payable",
      "type": "fallback"
    },
    {
      "anonymous": false,
      "inputs": [
        {
          "indexed": true,
          "name": "_burnerm",
          "type": "address"
        },
        {
          "indexed": true,
          "name": "_value",
          "type": "uint256"
        }
      ],
      "name": "Burn",
      "type": "event"
    },
    {
      "anonymous": false,
      "inputs": [
        {
          "indexed": true,
          "name": "_burnerm",
          "type": "address"
        },
        {
          "indexed": true,
          "name": "_value",
          "type": "uint256"
        }
      ],
      "name": "Issue",
      "type": "event"
    },
    {
      "anonymous": false,
      "inputs": [
        {
          "indexed": true,
          "name": "_from",
          "type": "address"
        },
        {
          "indexed": true,
          "name": "_to",
          "type": "address"
        },
        {
          "indexed": false,
          "name": "_value",
          "type": "uint256"
        }
      ],
      "name": "Transfer",
      "type": "event"
    },
    {
      "anonymous": false,
      "inputs": [
        {
          "indexed": true,
          "name": "_owner",
          "type": "address"
        },
        {
          "indexed": true,
          "name": "_spender",
          "type": "address"
        },
        {
          "indexed": false,
          "name": "_value",
          "type": "uint256"
        }
      ],
      "name": "Approval",
      "type": "event"
    },
    {
      "constant": true,
      "inputs": [
        {
          "name": "_someone",
          "type": "address"
        }
      ],
      "name": "balanceOf",
      "outputs": [
        {
          "name": "balance",
          "type": "uint256"
        }
      ],
      "payable": false,
      "stateMutability": "view",
      "type": "function"
    },
    {
      "constant": false,
      "inputs": [
        {
          "name": "_to",
          "type": "address"
        },
        {
          "name": "_value",
          "type": "uint256"
        }
      ],
      "name": "transfer",
      "outputs": [
        {
          "name": "success",
          "type": "bool"
        }
      ],
      "payable": false,
      "stateMutability": "nonpayable",
      "type": "function"
    },
    {
      "constant": true,
      "inputs": [
        {
          "name": "_owner",
          "type": "address"
        },
        {
          "name": "_spender",
          "type": "address"
        }
      ],
      "name": "allowance",
      "outputs": [
        {
          "name": "remaining",
          "type": "uint256"
        }
      ],
      "payable": false,
      "stateMutability": "view",
      "type": "function"
    },
    {
      "constant": false,
      "inputs": [
        {
          "name": "_spender",
          "type": "address"
        },
        {
          "name": "_value",
          "type": "uint256"
        }
      ],
      "name": "approve",
      "outputs": [
        {
          "name": "success",
          "type": "bool"
        }
      ],
      "payable": false,
      "stateMutability": "nonpayable",
      "type": "function"
    },
    {
      "constant": false,
      "inputs": [
        {
          "name": "_from",
          "type": "address"
        },
        {
          "name": "_to",
          "type": "address"
        },
        {
          "name": "_value",
          "type": "uint256"
        }
      ],
      "name": "transferFrom",
      "outputs": [
        {
          "name": "success",
          "type": "bool"
        }
      ],
      "payable": false,
      "stateMutability": "nonpayable",
      "type": "function"
    },
    {
      "constant": false,
      "inputs": [
        {
          "name": "_number",
          "type": "uint256"
        }
      ],
      "name": "burn",
      "outputs": [],
      "payable": false,
      "stateMutability": "nonpayable",
      "type": "function"
    },
    {
      "constant": false,
      "inputs": [
        {
          "name": "_number",
          "type": "uint256"
        }
      ],
      "name": "increaseTotalSupply",
      "outputs": [],
      "payable": false,
      "stateMutability": "nonpayable",
      "type": "function"
    },
    {
      "constant": false,
      "inputs": [
        {
          "name": "_to",
          "type": "address"
        },
        {
          "name": "_amount",
          "type": "uint256"
        }
      ],
      "name": "withdrawEther",
      "outputs": [],
      "payable": false,
      "stateMutability": "nonpayable",
      "type": "function"
    },
    {
      "constant": true,
      "inputs": [],
      "name": "getBalance",
      "outputs": [
        {
          "name": "",
          "type": "uint256"
        }
      ],
      "payable": false,
      "stateMutability": "view",
      "type": "function"
    },
    {
      "constant": false,
      "inputs": [],
      "name": "killContract",
      "outputs": [],
      "payable": false,
      "stateMutability": "nonpayable",
      "type": "function"
    }
  ],
  "bytecode": "0x60806040523480156200001157600080fd5b506040516020806200181f833981018060405281019080805190602001909291905050506040805190810160405280601281526020017f4e677579656e4e677579656e20546f6b656e000000000000000000000000000081525060039080519060200190620000829291906200016e565b506040805190810160405280600681526020017f4e475559454e000000000000000000000000000000000000000000000000000081525060029080519060200190620000d09291906200016e565b50806000819055506000600181905550600054600560003373ffffffffffffffffffffffffffffffffffffffff1673ffffffffffffffffffffffffffffffffffffffff1681526020019081526020016000208190555033600460006101000a81548173ffffffffffffffffffffffffffffffffffffffff021916908373ffffffffffffffffffffffffffffffffffffffff160217905550506200021d565b828054600181600116156101000203166002900490600052602060002090601f016020900481019282601f10620001b157805160ff1916838001178555620001e2565b82800160010185558215620001e2579182015b82811115620001e1578251825591602001919060010190620001c4565b5b509050620001f19190620001f5565b5090565b6200021a91905b8082111562000216576000816000905550600101620001fc565b5090565b90565b6115f2806200022d6000396000f3006080604052600436106100d0576000357c0100000000000000000000000000000000000000000000000000000000900463ffffffff16806306fdde0314610387578063095ea7b31461041757806312065fe01461047c57806318160ddd146104a75780631c02708d146104d25780631d43cc98146104e957806323b872dd14610516578063313ce5671461059b57806342966c68146105c6578063522f6815146105f357806370a082311461064057806395d89b4114610697578063a9059cbb14610727578063dd62ed3e1461078c575b6000670de0b6b3a76400003410151515610152576040517f08c379a00000000000000000000000000000000000000000000000000000000081526004018080602001828103825260108152602001807f6174206c6561737420312065746865720000000000000000000000000000000081525060200191505060405180910390fd5b670de0b6b3a76400003481151561016557fe5b0490508060056000600460009054906101000a900473ffffffffffffffffffffffffffffffffffffffff1673ffffffffffffffffffffffffffffffffffffffff1673ffffffffffffffffffffffffffffffffffffffff1681526020019081526020016000205410151515610241576040517f08c379a00000000000000000000000000000000000000000000000000000000081526004018080602001828103825260198152602001807f72756e206f7574206f6620746f6b656e7320746f2073656c6c0000000000000081525060200191505060405180910390fd5b8060056000600460009054906101000a900473ffffffffffffffffffffffffffffffffffffffff1673ffffffffffffffffffffffffffffffffffffffff1673ffffffffffffffffffffffffffffffffffffffff1681526020019081526020016000206000828254039250508190555080600560003373ffffffffffffffffffffffffffffffffffffffff1673ffffffffffffffffffffffffffffffffffffffff168152602001908152602001600020600082825401925050819055503373ffffffffffffffffffffffffffffffffffffffff16600460009054906101000a900473ffffffffffffffffffffffffffffffffffffffff1673ffffffffffffffffffffffffffffffffffffffff167fddf252ad1be2c89b69c2b068fc378daa952ba7f163c4a11628f55a4df523b3ef836040518082815260200191505060405180910390a350005b34801561039357600080fd5b5061039c610803565b6040518080602001828103825283818151815260200191508051906020019080838360005b838110156103dc5780820151818401526020810190506103c1565b50505050905090810190601f1680156104095780820380516001836020036101000a031916815260200191505b509250505060405180910390f35b34801561042357600080fd5b50610462600480360381019080803573ffffffffffffffffffffffffffffffffffffffff169060200190929190803590602001909291905050506108a1565b604051808215151515815260200191505060405180910390f35b34801561048857600080fd5b506104916109a6565b6040518082815260200191505060405180910390f35b3480156104b357600080fd5b506104bc6109c5565b6040518082815260200191505060405180910390f35b3480156104de57600080fd5b506104e76109cb565b005b3480156104f557600080fd5b5061051460048036038101908080359060200190929190505050610acb565b005b34801561052257600080fd5b50610581600480360381019080803573ffffffffffffffffffffffffffffffffffffffff169060200190929190803573ffffffffffffffffffffffffffffffffffffffff16906020019092919080359060200190929190505050610cab565b604051808215151515815260200191505060405180910390f35b3480156105a757600080fd5b506105b0610fbe565b6040518082815260200191505060405180910390f35b3480156105d257600080fd5b506105f160048036038101908080359060200190929190505050610fc4565b005b3480156105ff57600080fd5b5061063e600480360381019080803573ffffffffffffffffffffffffffffffffffffffff16906020019092919080359060200190929190505050611129565b005b34801561064c57600080fd5b50610681600480360381019080803573ffffffffffffffffffffffffffffffffffffffff16906020019092919050505061126f565b6040518082815260200191505060405180910390f35b3480156106a357600080fd5b506106ac6112b8565b6040518080602001828103825283818151815260200191508051906020019080838360005b838110156106ec5780820151818401526020810190506106d1565b50505050905090810190601f1680156107195780820380516001836020036101000a031916815260200191505b509250505060405180910390f35b34801561073357600080fd5b50610772600480360381019080803573ffffffffffffffffffffffffffffffffffffffff16906020019092919080359060200190929190505050611356565b604051808215151515815260200191505060405180910390f35b34801561079857600080fd5b506107ed600480360381019080803573ffffffffffffffffffffffffffffffffffffffff169060200190929190803573ffffffffffffffffffffffffffffffffffffffff16906020019092919050505061153f565b6040518082815260200191505060405180910390f35b60038054600181600116156101000203166002900480601f0160208091040260200160405190810160405280929190818152602001828054600181600116156101000203166002900480156108995780601f1061086e57610100808354040283529160200191610899565b820191906000526020600020905b81548152906001019060200180831161087c57829003601f168201915b505050505081565b600080821115156108b557600090506109a0565b81600660003373ffffffffffffffffffffffffffffffffffffffff1673ffffffffffffffffffffffffffffffffffffffff16815260200190815260200160002060008573ffffffffffffffffffffffffffffffffffffffff1673ffffffffffffffffffffffffffffffffffffffff168152602001908152602001600020819055508273ffffffffffffffffffffffffffffffffffffffff163373ffffffffffffffffffffffffffffffffffffffff167f8c5be1e5ebec7d5bd14f71427d1e84f3dd0314c0f7b2291e5b200ac8c7c3b925846040518082815260200191505060405180910390a3600190505b92915050565b60003073ffffffffffffffffffffffffffffffffffffffff1631905090565b60005481565b600460009054906101000a900473ffffffffffffffffffffffffffffffffffffffff1673ffffffffffffffffffffffffffffffffffffffff163373ffffffffffffffffffffffffffffffffffffffff16141515610a90576040517f08c379a00000000000000000000000000000000000000000000000000000000081526004018080602001828103825260148152602001807f6e6f7420636f6e74726163742063726561746f7200000000000000000000000081525060200191505060405180910390fd5b600460009054906101000a900473ffffffffffffffffffffffffffffffffffffffff1673ffffffffffffffffffffffffffffffffffffffff16ff5b600460009054906101000a900473ffffffffffffffffffffffffffffffffffffffff1673ffffffffffffffffffffffffffffffffffffffff163373ffffffffffffffffffffffffffffffffffffffff16141515610b90576040517f08c379a00000000000000000000000000000000000000000000000000000000081526004018080602001828103825260148152602001807f6e6f7420636f6e74726163742063726561746f7200000000000000000000000081525060200191505060405180910390fd5b600081111515610c08576040517f08c379a00000000000000000000000000000000000000000000000000000000081526004018080602001828103825260178152602001807f6e756d62657220746f6b656e20697320696e76616c696400000000000000000081525060200191505060405180910390fd5b80600560003373ffffffffffffffffffffffffffffffffffffffff1673ffffffffffffffffffffffffffffffffffffffff16815260200190815260200160002060008282540192505081905550806000808282540192505081905550803373ffffffffffffffffffffffffffffffffffffffff167fc65a3f767206d2fdcede0b094a4840e01c0dd0be1888b5ba800346eaa0123c1660405160405180910390a350565b60008082111515610cbf5760009050610fb7565b60008373ffffffffffffffffffffffffffffffffffffffff161415610d4c576040517f08c379a000000000000000000000000000000000000000000000000000000000815260040180806020018281038252600d8152602001807f61766f6964206275726e696e670000000000000000000000000000000000000081525060200191505060405180910390fd5b81600660008673ffffffffffffffffffffffffffffffffffffffff1673ffffffffffffffffffffffffffffffffffffffff16815260200190815260200160002060003373ffffffffffffffffffffffffffffffffffffffff1673ffffffffffffffffffffffffffffffffffffffff168152602001908152602001600020541015610dd95760009050610fb7565b81600560008673ffffffffffffffffffffffffffffffffffffffff1673ffffffffffffffffffffffffffffffffffffffff168152602001908152602001600020541015610e295760009050610fb7565b81600560008673ffffffffffffffffffffffffffffffffffffffff1673ffffffffffffffffffffffffffffffffffffffff1681526020019081526020016000206000828254039250508190555081600560008573ffffffffffffffffffffffffffffffffffffffff1673ffffffffffffffffffffffffffffffffffffffff1681526020019081526020016000206000828254019250508190555081600660008673ffffffffffffffffffffffffffffffffffffffff1673ffffffffffffffffffffffffffffffffffffffff16815260200190815260200160002060003373ffffffffffffffffffffffffffffffffffffffff1673ffffffffffffffffffffffffffffffffffffffff168152602001908152602001600020600082825403925050819055508273ffffffffffffffffffffffffffffffffffffffff168473ffffffffffffffffffffffffffffffffffffffff167fddf252ad1be2c89b69c2b068fc378daa952ba7f163c4a11628f55a4df523b3ef846040518082815260200191505060405180910390a3600190505b9392505050565b60015481565b600081118015611012575080600560003373ffffffffffffffffffffffffffffffffffffffff1673ffffffffffffffffffffffffffffffffffffffff16815260200190815260200160002054115b1515611086576040517f08c379a000000000000000000000000000000000000000000000000000000000815260040180806020018281038252601b8152602001807f6e756d626572206f6620746f6b656e7320697320696e76616c6964000000000081525060200191505060405180910390fd5b80600560003373ffffffffffffffffffffffffffffffffffffffff1673ffffffffffffffffffffffffffffffffffffffff16815260200190815260200160002060008282540392505081905550806000808282540392505081905550803373ffffffffffffffffffffffffffffffffffffffff167fcc16f5dbb4873280815c1ee09dbd06736cffcc184412cf7a71a0fdb75d397ca560405160405180910390a350565b6000600460009054906101000a900473ffffffffffffffffffffffffffffffffffffffff1673ffffffffffffffffffffffffffffffffffffffff163373ffffffffffffffffffffffffffffffffffffffff161415156111f0576040517f08c379a00000000000000000000000000000000000000000000000000000000081526004018080602001828103825260148152602001807f6e6f7420636f6e74726163742063726561746f7200000000000000000000000081525060200191505060405180910390fd5b670de0b6b3a764000082029050803073ffffffffffffffffffffffffffffffffffffffff16311015151561122357600080fd5b8273ffffffffffffffffffffffffffffffffffffffff166108fc829081150290604051600060405180830381858888f19350505050158015611269573d6000803e3d6000fd5b50505050565b6000600560008373ffffffffffffffffffffffffffffffffffffffff1673ffffffffffffffffffffffffffffffffffffffff168152602001908152602001600020549050919050565b60028054600181600116156101000203166002900480601f01602080910402602001604051908101604052809291908181526020018280546001816001161561010002031660029004801561134e5780601f106113235761010080835404028352916020019161134e565b820191906000526020600020905b81548152906001019060200180831161133157829003601f168201915b505050505081565b600081600560003373ffffffffffffffffffffffffffffffffffffffff1673ffffffffffffffffffffffffffffffffffffffff1681526020019081526020016000205410156113a85760009050611539565b60008373ffffffffffffffffffffffffffffffffffffffff161415611435576040517f08c379a000000000000000000000000000000000000000000000000000000000815260040180806020018281038252600d8152602001807f61766f6964206275726e696e670000000000000000000000000000000000000081525060200191505060405180910390fd5b81600560003373ffffffffffffffffffffffffffffffffffffffff1673ffffffffffffffffffffffffffffffffffffffff1681526020019081526020016000206000828254039250508190555081600560008573ffffffffffffffffffffffffffffffffffffffff1673ffffffffffffffffffffffffffffffffffffffff168152602001908152602001600020600082825401925050819055508273ffffffffffffffffffffffffffffffffffffffff163373ffffffffffffffffffffffffffffffffffffffff167fddf252ad1be2c89b69c2b068fc378daa952ba7f163c4a11628f55a4df523b3ef846040518082815260200191505060405180910390a3600190505b92915050565b6000600660008473ffffffffffffffffffffffffffffffffffffffff1673ffffffffffffffffffffffffffffffffffffffff16815260200190815260200160002060008373ffffffffffffffffffffffffffffffffffffffff1673ffffffffffffffffffffffffffffffffffffffff168152602001908152602001600020549050929150505600a165627a7a72305820d6520e1f3de863ba2ddd85bd182aa8c714bdb7ead6e0092f37b71ad9e9cf73da0029",
  "source": "pragma solidity ^0.4.22;\nimport \"./ERC20Token.sol\";\n\ncontract NguyenToken is ERC20Token {\n    address private manager;\n\n  // Maintain the balance in a mapping\n    mapping(address => uint256)  balances;\n\n  // Allowances\n  // Two dimensional associative array\n  // index-1 = Owner account   index-2 = spender account\n    mapping(address => mapping (address => uint256)) allowances;\n\n  /// emit from Burning event\n    event Burn(address indexed _burnerm, uint256 indexed _value);\n\n  /// emit from issue event\n    event Issue(address indexed _burnerm, uint256 indexed _value);\n\n    constructor(uint _totalSupply) public {\n        name = \"NguyenNguyen Token\";\n        symbol = \"NGUYEN\";\n        totalSupply = _totalSupply;\n        decimals = 0;\n\n        // Set the sender as the owner of all the initial set of tokens\n        // Declare the balances mapping\n        balances[msg.sender] = totalSupply;\n        manager = msg.sender;\n    }\n\n    // Anyone can call this constant function to check the balance of tokens for an address\n    function balanceOf(address _someone) public view returns (uint256 balance){\n        return balances[_someone];\n    }\n\n    function transfer(address _to, uint256 _value) public returns (bool success) {\n          // Return false if specified value is less than the balance available\n        if(balances[msg.sender] < _value) {\n            return false;\n        }\n        if (_to == 0x0) revert(\"avoid burning\"); // avoid burning\n        // Reduce the balance by _value\n        balances[msg.sender] -= _value;\n\n        // Increase the balance of the receiever that is account with address _to\n        balances[_to] += _value;\n\n        // Declare & Emit the transfer event\n        emit Transfer(msg.sender, _to, _value);\n\n        return true;\n    }\n\n    // How many tokens can spender spend from owner's account\n    function allowance(address _owner, address _spender) public view returns (uint remaining){\n        //1. Declare a mapping to manage allowances\n        //2. Return the allowance for _spender approved by _owner\n        return allowances[_owner][_spender];\n    }\n\n    // Approval - sets the allowance\n    function approve(address _spender, uint256 _value) public returns (bool success) {\n        if(_value <= 0) return false;\n\n        // 3. Simply add/change the amount in allowances\n        allowances[msg.sender][_spender] = _value;\n\n        // 4. Declare the Approval event and emit it\n        emit Approval(msg.sender, _spender, _value);\n\n        return true;\n    }\n\n    // Transfer from\n    // B transfer _value from A's account to C' account\n    function transferFrom(address _from, address _to, uint256 _value) public returns (bool success) {\n      // Multiple if statements to make it easy to understand\n      // a) b) c) below may be combined with && in one statememnt\n\n        // a) Specified _value must be > 0\n        if(_value <= 0) return false;\n\n        if (_to == 0x0) revert(\"avoid burning\"); // avoid burning\n        // b) Check if _spender allowed to spend the specified _value from _from account\n        // Spender's address = msg.sender\n        if(allowances[_from][msg.sender] < _value) return false;\n\n        // c) Check if the _from has enough tokens\n        if(balances[_from] < _value) return false;\n\n        // Reduce the balance _from\n        balances[_from] -= _value;\n        // Increase the balance _to\n        balances[_to] += _value;\n\n        // Reduce the allowance for spender\n        allowances[_from][msg.sender] -= _value;\n\n        // Emit a transfer event\n        emit Transfer(_from, _to, _value);\n\n        return true;\n    }\n\n    // burn tokens\n    function burn(uint _number) public {\n        require(_number > 0 && balances[msg.sender] > _number, \"number of tokens is invalid\");\n        // Reduce the balance by _value\n        balances[msg.sender] -= _number;\n        // Reduce total supply\n        totalSupply -= _number;\n        // Declare & Emit the transfer event\n        emit Burn(msg.sender, _number);\n    }\n\n    modifier onlyManager() {\n        require(msg.sender == manager, \"not contract creator\");\n        _;\n    }\n\n    // issue more tokens\n    function increaseTotalSupply(uint _number) public onlyManager {\n        require(_number > 0, \"number token is invalid\");\n        // Increase the balance by _value\n        balances[msg.sender] += _number;\n        // Increase total supply\n        totalSupply += _number;\n        // Declare & Emit the transfer event\n        emit Issue(msg.sender, _number);\n    }\n\n    // withdraw ether from contract\n    function withdrawEther(address _to, uint _amount) public onlyManager {\n        uint amountInWei = uint(_amount * (1 ether));\n        require(address(this).balance >= amountInWei);\n        _to.transfer(amountInWei);\n    }\n\n    // get contract balance in ether\n    function getBalance() public view returns (uint) {\n        return address(this).balance;    \n    }\n\n    // self destruction\n    function killContract() public onlyManager {\n        selfdestruct(manager);\n    }\n\n    // Fallback function\n    // accept purchasing by ethers\n    function() public payable {\n        require(msg.value >= 1 ether, \"at least 1 ether\");\n        uint num = uint(msg.value / (1 ether));\n        require(balances[manager] >= num, \"run out of tokens to sell\");\n        // Reduce the balance by _value\n        balances[manager] -= num;\n\n        // Increase the balance of the receiever that is account with address _to\n        balances[msg.sender] += num;\n        // Declare & Emit the transfer event\n        emit Transfer(manager, msg.sender, num);\n    }\n}\n",
  "sourcePath": "E:\\git\\ERC20-token\\contracts\\NguyenToken.sol",
  "compiler": {
    "name": "solc",
    "version": "0.4.24+commit.e67f0147.Emscripten.clang"
  },
  "schemaVersion": "2.0.1",
  "updatedAt": "2018-08-15T06:58:33.595Z"
}