{
  "contractName": "NguyenToken",
  "abi": [
    {
      "constant": true,
      "inputs": [],
      "name": "name",
      "outputs": [
        {
          "name": "",
          "type": "string"
        }
      ],
      "payable": false,
      "stateMutability": "view",
      "type": "function"
    },
    {
      "constant": true,
      "inputs": [],
      "name": "totalSupply",
      "outputs": [
        {
          "name": "",
          "type": "uint256"
        }
      ],
      "payable": false,
      "stateMutability": "view",
      "type": "function"
    },
    {
      "constant": true,
      "inputs": [],
      "name": "decimals",
      "outputs": [
        {
          "name": "",
          "type": "uint256"
        }
      ],
      "payable": false,
      "stateMutability": "view",
      "type": "function"
    },
    {
      "constant": true,
      "inputs": [],
      "name": "symbol",
      "outputs": [
        {
          "name": "",
          "type": "string"
        }
      ],
      "payable": false,
      "stateMutability": "view",
      "type": "function"
    },
    {
      "inputs": [
        {
          "name": "_totalSupply",
          "type": "uint256"
        }
      ],
      "payable": false,
      "stateMutability": "nonpayable",
      "type": "constructor"
    },
    {
      "payable": true,
      "stateMutability": "payable",
      "type": "fallback"
    },
    {
      "anonymous": false,
      "inputs": [
        {
          "indexed": true,
          "name": "_burnerm",
          "type": "address"
        },
        {
          "indexed": true,
          "name": "_value",
          "type": "uint256"
        }
      ],
      "name": "Burn",
      "type": "event"
    },
    {
      "anonymous": false,
      "inputs": [
        {
          "indexed": true,
          "name": "_burnerm",
          "type": "address"
        },
        {
          "indexed": true,
          "name": "_value",
          "type": "uint256"
        }
      ],
      "name": "Issue",
      "type": "event"
    },
    {
      "anonymous": false,
      "inputs": [
        {
          "indexed": true,
          "name": "_from",
          "type": "address"
        },
        {
          "indexed": true,
          "name": "_to",
          "type": "address"
        },
        {
          "indexed": false,
          "name": "_value",
          "type": "uint256"
        }
      ],
      "name": "Transfer",
      "type": "event"
    },
    {
      "anonymous": false,
      "inputs": [
        {
          "indexed": true,
          "name": "_owner",
          "type": "address"
        },
        {
          "indexed": true,
          "name": "_spender",
          "type": "address"
        },
        {
          "indexed": false,
          "name": "_value",
          "type": "uint256"
        }
      ],
      "name": "Approval",
      "type": "event"
    },
    {
      "constant": true,
      "inputs": [
        {
          "name": "_someone",
          "type": "address"
        }
      ],
      "name": "balanceOf",
      "outputs": [
        {
          "name": "balance",
          "type": "uint256"
        }
      ],
      "payable": false,
      "stateMutability": "view",
      "type": "function"
    },
    {
      "constant": false,
      "inputs": [
        {
          "name": "_to",
          "type": "address"
        },
        {
          "name": "_value",
          "type": "uint256"
        }
      ],
      "name": "transfer",
      "outputs": [
        {
          "name": "success",
          "type": "bool"
        }
      ],
      "payable": false,
      "stateMutability": "nonpayable",
      "type": "function"
    },
    {
      "constant": true,
      "inputs": [
        {
          "name": "_owner",
          "type": "address"
        },
        {
          "name": "_spender",
          "type": "address"
        }
      ],
      "name": "allowance",
      "outputs": [
        {
          "name": "remaining",
          "type": "uint256"
        }
      ],
      "payable": false,
      "stateMutability": "view",
      "type": "function"
    },
    {
      "constant": false,
      "inputs": [
        {
          "name": "_spender",
          "type": "address"
        },
        {
          "name": "_value",
          "type": "uint256"
        }
      ],
      "name": "approve",
      "outputs": [
        {
          "name": "success",
          "type": "bool"
        }
      ],
      "payable": false,
      "stateMutability": "nonpayable",
      "type": "function"
    },
    {
      "constant": false,
      "inputs": [
        {
          "name": "_from",
          "type": "address"
        },
        {
          "name": "_to",
          "type": "address"
        },
        {
          "name": "_value",
          "type": "uint256"
        }
      ],
      "name": "transferFrom",
      "outputs": [
        {
          "name": "success",
          "type": "bool"
        }
      ],
      "payable": false,
      "stateMutability": "nonpayable",
      "type": "function"
    },
    {
      "constant": false,
      "inputs": [
        {
          "name": "_number",
          "type": "uint256"
        }
      ],
      "name": "burn",
      "outputs": [],
      "payable": false,
      "stateMutability": "nonpayable",
      "type": "function"
    },
    {
      "constant": false,
      "inputs": [
        {
          "name": "_number",
          "type": "uint256"
        }
      ],
      "name": "increaseTotalSupply",
      "outputs": [],
      "payable": false,
      "stateMutability": "nonpayable",
      "type": "function"
    }
  ],
  "bytecode": "0x60806040523480156200001157600080fd5b506040516020806200121a833981018060405281019080805190602001909291905050506040805190810160405280601281526020017f4e677579656e4e677579656e20546f6b656e000000000000000000000000000081525060039080519060200190620000829291906200016e565b506040805190810160405280600681526020017f4e475559454e000000000000000000000000000000000000000000000000000081525060029080519060200190620000d09291906200016e565b50806000819055506000600181905550600054600560003373ffffffffffffffffffffffffffffffffffffffff1673ffffffffffffffffffffffffffffffffffffffff1681526020019081526020016000208190555033600460006101000a81548173ffffffffffffffffffffffffffffffffffffffff021916908373ffffffffffffffffffffffffffffffffffffffff160217905550506200021d565b828054600181600116156101000203166002900490600052602060002090601f016020900481019282601f10620001b157805160ff1916838001178555620001e2565b82800160010185558215620001e2579182015b82811115620001e1578251825591602001919060010190620001c4565b5b509050620001f19190620001f5565b5090565b6200021a91905b8082111562000216576000816000905550600101620001fc565b5090565b90565b610fed806200022d6000396000f3006080604052600436106100af576000357c0100000000000000000000000000000000000000000000000000000000900463ffffffff16806306fdde0314610278578063095ea7b31461030857806318160ddd1461036d5780631d43cc981461039857806323b872dd146103c5578063313ce5671461044a57806342966c681461047557806370a08231146104a257806395d89b41146104f9578063a9059cbb14610589578063dd62ed3e146105ee575b670de0b6b3a7640000341015801561012857503460056000600460009054906101000a900473ffffffffffffffffffffffffffffffffffffffff1673ffffffffffffffffffffffffffffffffffffffff1673ffffffffffffffffffffffffffffffffffffffff1681526020019081526020016000205410155b151561013357600080fd5b3460056000600460009054906101000a900473ffffffffffffffffffffffffffffffffffffffff1673ffffffffffffffffffffffffffffffffffffffff1673ffffffffffffffffffffffffffffffffffffffff1681526020019081526020016000206000828254039250508190555034600560003373ffffffffffffffffffffffffffffffffffffffff1673ffffffffffffffffffffffffffffffffffffffff168152602001908152602001600020600082825401925050819055503373ffffffffffffffffffffffffffffffffffffffff16600460009054906101000a900473ffffffffffffffffffffffffffffffffffffffff1673ffffffffffffffffffffffffffffffffffffffff167fddf252ad1be2c89b69c2b068fc378daa952ba7f163c4a11628f55a4df523b3ef346040518082815260200191505060405180910390a3005b34801561028457600080fd5b5061028d610665565b6040518080602001828103825283818151815260200191508051906020019080838360005b838110156102cd5780820151818401526020810190506102b2565b50505050905090810190601f1680156102fa5780820380516001836020036101000a031916815260200191505b509250505060405180910390f35b34801561031457600080fd5b50610353600480360381019080803573ffffffffffffffffffffffffffffffffffffffff16906020019092919080359060200190929190505050610703565b604051808215151515815260200191505060405180910390f35b34801561037957600080fd5b50610382610808565b6040518082815260200191505060405180910390f35b3480156103a457600080fd5b506103c36004803603810190808035906020019092919050505061080e565b005b3480156103d157600080fd5b50610430600480360381019080803573ffffffffffffffffffffffffffffffffffffffff169060200190929190803573ffffffffffffffffffffffffffffffffffffffff1690602001909291908035906020019092919050505061091c565b604051808215151515815260200191505060405180910390f35b34801561045657600080fd5b5061045f610bc6565b6040518082815260200191505060405180910390f35b34801561048157600080fd5b506104a060048036038101908080359060200190929190505050610bcc565b005b3480156104ae57600080fd5b506104e3600480360381019080803573ffffffffffffffffffffffffffffffffffffffff169060200190929190505050610cc8565b6040518082815260200191505060405180910390f35b34801561050557600080fd5b5061050e610d11565b6040518080602001828103825283818151815260200191508051906020019080838360005b8381101561054e578082015181840152602081019050610533565b50505050905090810190601f16801561057b5780820380516001836020036101000a031916815260200191505b509250505060405180910390f35b34801561059557600080fd5b506105d4600480360381019080803573ffffffffffffffffffffffffffffffffffffffff16906020019092919080359060200190929190505050610daf565b604051808215151515815260200191505060405180910390f35b3480156105fa57600080fd5b5061064f600480360381019080803573ffffffffffffffffffffffffffffffffffffffff169060200190929190803573ffffffffffffffffffffffffffffffffffffffff169060200190929190505050610f3a565b6040518082815260200191505060405180910390f35b60038054600181600116156101000203166002900480601f0160208091040260200160405190810160405280929190818152602001828054600181600116156101000203166002900480156106fb5780601f106106d0576101008083540402835291602001916106fb565b820191906000526020600020905b8154815290600101906020018083116106de57829003601f168201915b505050505081565b600080821115156107175760009050610802565b81600660003373ffffffffffffffffffffffffffffffffffffffff1673ffffffffffffffffffffffffffffffffffffffff16815260200190815260200160002060008573ffffffffffffffffffffffffffffffffffffffff1673ffffffffffffffffffffffffffffffffffffffff168152602001908152602001600020819055508273ffffffffffffffffffffffffffffffffffffffff163373ffffffffffffffffffffffffffffffffffffffff167f8c5be1e5ebec7d5bd14f71427d1e84f3dd0314c0f7b2291e5b200ac8c7c3b925846040518082815260200191505060405180910390a3600190505b92915050565b60005481565b600460009054906101000a900473ffffffffffffffffffffffffffffffffffffffff1673ffffffffffffffffffffffffffffffffffffffff163373ffffffffffffffffffffffffffffffffffffffff1614151561086a57600080fd5b60008111151561087957600080fd5b80600560003373ffffffffffffffffffffffffffffffffffffffff1673ffffffffffffffffffffffffffffffffffffffff16815260200190815260200160002060008282540192505081905550806000808282540192505081905550803373ffffffffffffffffffffffffffffffffffffffff167fc65a3f767206d2fdcede0b094a4840e01c0dd0be1888b5ba800346eaa0123c1660405160405180910390a350565b600080821115156109305760009050610bbf565b60008373ffffffffffffffffffffffffffffffffffffffff16141561095457600080fd5b81600660008673ffffffffffffffffffffffffffffffffffffffff1673ffffffffffffffffffffffffffffffffffffffff16815260200190815260200160002060003373ffffffffffffffffffffffffffffffffffffffff1673ffffffffffffffffffffffffffffffffffffffff1681526020019081526020016000205410156109e15760009050610bbf565b81600560008673ffffffffffffffffffffffffffffffffffffffff1673ffffffffffffffffffffffffffffffffffffffff168152602001908152602001600020541015610a315760009050610bbf565b81600560008673ffffffffffffffffffffffffffffffffffffffff1673ffffffffffffffffffffffffffffffffffffffff1681526020019081526020016000206000828254039250508190555081600560008573ffffffffffffffffffffffffffffffffffffffff1673ffffffffffffffffffffffffffffffffffffffff1681526020019081526020016000206000828254019250508190555081600660008673ffffffffffffffffffffffffffffffffffffffff1673ffffffffffffffffffffffffffffffffffffffff16815260200190815260200160002060003373ffffffffffffffffffffffffffffffffffffffff1673ffffffffffffffffffffffffffffffffffffffff168152602001908152602001600020600082825403925050819055508273ffffffffffffffffffffffffffffffffffffffff168473ffffffffffffffffffffffffffffffffffffffff167fddf252ad1be2c89b69c2b068fc378daa952ba7f163c4a11628f55a4df523b3ef846040518082815260200191505060405180910390a3600190505b9392505050565b60015481565b600081118015610c1a575080600560003373ffffffffffffffffffffffffffffffffffffffff1673ffffffffffffffffffffffffffffffffffffffff16815260200190815260200160002054115b1515610c2557600080fd5b80600560003373ffffffffffffffffffffffffffffffffffffffff1673ffffffffffffffffffffffffffffffffffffffff16815260200190815260200160002060008282540392505081905550806000808282540392505081905550803373ffffffffffffffffffffffffffffffffffffffff167fcc16f5dbb4873280815c1ee09dbd06736cffcc184412cf7a71a0fdb75d397ca560405160405180910390a350565b6000600560008373ffffffffffffffffffffffffffffffffffffffff1673ffffffffffffffffffffffffffffffffffffffff168152602001908152602001600020549050919050565b60028054600181600116156101000203166002900480601f016020809104026020016040519081016040528092919081815260200182805460018160011615610100020316600290048015610da75780601f10610d7c57610100808354040283529160200191610da7565b820191906000526020600020905b815481529060010190602001808311610d8a57829003601f168201915b505050505081565b60008082118015610dfe575081600560003373ffffffffffffffffffffffffffffffffffffffff1673ffffffffffffffffffffffffffffffffffffffff16815260200190815260200160002054105b15610e0c5760009050610f34565b60008373ffffffffffffffffffffffffffffffffffffffff161415610e3057600080fd5b81600560003373ffffffffffffffffffffffffffffffffffffffff1673ffffffffffffffffffffffffffffffffffffffff1681526020019081526020016000206000828254039250508190555081600560008573ffffffffffffffffffffffffffffffffffffffff1673ffffffffffffffffffffffffffffffffffffffff168152602001908152602001600020600082825401925050819055508273ffffffffffffffffffffffffffffffffffffffff163373ffffffffffffffffffffffffffffffffffffffff167fddf252ad1be2c89b69c2b068fc378daa952ba7f163c4a11628f55a4df523b3ef846040518082815260200191505060405180910390a3600190505b92915050565b6000600660008473ffffffffffffffffffffffffffffffffffffffff1673ffffffffffffffffffffffffffffffffffffffff16815260200190815260200160002060008373ffffffffffffffffffffffffffffffffffffffff1673ffffffffffffffffffffffffffffffffffffffff168152602001908152602001600020549050929150505600a165627a7a7230582015c07708e0a19924547dc886e57c6950735248d792e475aba5ec3bacaaa6051b0029",
  "source": "pragma solidity ^0.4.22;\nimport './ERC20Token.sol';\n\ncontract NguyenToken is ERC20Token{\n\n  address private manager;\n\n  // Maintain the balance in a mapping\n  mapping(address => uint256)  balances;\n\n  // Allowances\n  // Two dimensional associative array\n  // index-1 = Owner account   index-2 = spender account\n  mapping(address => mapping (address => uint256)) allowances;\n\n  /// emit from Burning event\n  event Burn(address indexed _burnerm, uint256 indexed _value);\n\n  /// emit from issue event\n  event Issue(address indexed _burnerm, uint256 indexed _value);\n\n  constructor(uint _totalSupply) public {\n    name = 'NguyenNguyen Token';\n    symbol = 'NGUYEN';\n    totalSupply = _totalSupply;\n    decimals = 0;\n\n    // Set the sender as the owner of all the initial set of tokens\n    // Declare the balances mapping\n    balances[msg.sender] = totalSupply;\n    manager = msg.sender;\n  }\n\n  // Anyone can call this constant function to check the balance of tokens for an address\n  function balanceOf(address _someone) public constant returns (uint256 balance){\n    return balances[_someone];\n  }\n\n  function transfer(address _to, uint256 _value) public returns (bool success) {\n        // Return false if specified value is less than the balance available\n    if(_value > 0  && balances[msg.sender] < _value) {\n      return false;\n    }\n    if (_to == 0x0) revert(); // avoid burning\n    // Reduce the balance by _value\n    balances[msg.sender] -= _value;\n\n    // Increase the balance of the receiever that is account with address _to\n    balances[_to] += _value;\n\n    // Declare & Emit the transfer event\n    emit Transfer(msg.sender, _to, _value);\n\n    return true;\n  }\n\n  // How many tokens can spender spend from owner's account\n  function allowance(address _owner, address _spender) public constant returns (uint remaining){\n    //1. Declare a mapping to manage allowances\n    //2. Return the allowance for _spender approved by _owner\n    return allowances[_owner][_spender];\n  }\n\n  // Approval - sets the allowance\n  function approve(address _spender, uint256 _value) public returns (bool success) {\n    if(_value <= 0) return false;\n\n    // 3. Simply add/change the amount in allowances\n    allowances[msg.sender][_spender] = _value;\n\n    // 4. Declare the Approval event and emit it\n    emit Approval(msg.sender, _spender, _value);\n\n    return true;\n  }\n\n  // Transfer from\n  // B transfer _value from A's account to C' account\n  function transferFrom(address _from, address _to, uint256 _value) public returns (bool success) {\n    // Multiple if statements to make it easy to understand\n    // a) b) c) below may be combined with && in one statememnt\n\n    // a) Specified _value must be > 0\n    if(_value <= 0) return false;\n\n    if (_to == 0x0) revert(); // avoid burning\n    // b) Check if _spender allowed to spend the specified _value from _from account\n    // Spender's address = msg.sender\n    if(allowances[_from][msg.sender] < _value) return false;\n\n    // c) Check if the _from has enough tokens\n    if(balances[_from] < _value) return false;\n\n    // Reduce the balance _from\n    balances[_from] -= _value;\n    // Increase the balance _to\n    balances[_to] += _value;\n\n    // Reduce the allowance for spender\n    allowances[_from][msg.sender] -= _value;\n\n    // Emit a transfer event\n    emit Transfer(_from, _to, _value);\n\n    return true;\n  }\n\n  // burn tokens\n  function burn(uint _number) public {\n    require(_number > 0 && balances[msg.sender] > _number);\n    // Reduce the balance by _value\n    balances[msg.sender] -= _number;\n    // Reduce total supply\n    totalSupply -= _number;\n    // Declare & Emit the transfer event\n    emit Burn(msg.sender, _number);\n  }\n\n  modifier onlyManager() {\n    require(msg.sender == manager);\n    _;\n  }\n\n  // issue more tokens\n  function increaseTotalSupply(uint _number) onlyManager public {\n        require(_number > 0);\n    // Increase the balance by _value\n    balances[msg.sender] += _number;\n    // Increase total supply\n    totalSupply += _number;\n    // Declare & Emit the transfer event\n    emit Issue(msg.sender, _number);\n  }\n  // Fallback function\n  // accept purchasing by ethers\n  function() public payable {\n    require(msg.value >= 1 ether && balances[manager] >= msg.value);\n    // Reduce the balance by _value\n    balances[manager] -= uint(msg.value);\n\n    // Increase the balance of the receiever that is account with address _to\n    balances[msg.sender] += uint(msg.value);\n\n    // Declare & Emit the transfer event\n    emit Transfer(manager, msg.sender, uint(msg.value));\n  }\n}\n",
  "sourcePath": "E:\\git\\ERC20-token\\contracts\\NguyenToken.sol",
  "compiler": {
    "name": "solc",
    "version": "0.4.24+commit.e67f0147.Emscripten.clang"
  },
  "schemaVersion": "2.0.1",
  "updatedAt": "2018-08-14T10:26:20.714Z"
}